{
  "contractName": "Escrow",
  "abi": [
    {
      "inputs": [
        {
          "internalType": "address",
          "name": "_payer",
          "type": "address"
        },
        {
          "internalType": "address payable",
          "name": "_payee",
          "type": "address"
        },
        {
          "internalType": "uint256",
          "name": "_amount",
          "type": "uint256"
        }
      ],
      "stateMutability": "nonpayable",
      "type": "constructor"
    },
    {
      "inputs": [],
      "name": "amount",
      "outputs": [
        {
          "internalType": "uint256",
          "name": "",
          "type": "uint256"
        }
      ],
      "stateMutability": "view",
      "type": "function"
    },
    {
      "inputs": [],
      "name": "lawyer",
      "outputs": [
        {
          "internalType": "address",
          "name": "",
          "type": "address"
        }
      ],
      "stateMutability": "view",
      "type": "function"
    },
    {
      "inputs": [],
      "name": "payee",
      "outputs": [
        {
          "internalType": "address payable",
          "name": "",
          "type": "address"
        }
      ],
      "stateMutability": "view",
      "type": "function"
    },
    {
      "inputs": [],
      "name": "payer",
      "outputs": [
        {
          "internalType": "address",
          "name": "",
          "type": "address"
        }
      ],
      "stateMutability": "view",
      "type": "function"
    },
    {
      "inputs": [],
      "name": "deposit",
      "outputs": [],
      "stateMutability": "payable",
      "type": "function"
    },
    {
      "inputs": [],
      "name": "release",
      "outputs": [],
      "stateMutability": "nonpayable",
      "type": "function"
    },
    {
      "inputs": [],
      "name": "balanceOf",
      "outputs": [
        {
          "internalType": "uint256",
          "name": "",
          "type": "uint256"
        }
      ],
      "stateMutability": "view",
      "type": "function"
    }
  ],
  "bytecode": "0x608060405234801561001057600080fd5b506040516106233803806106238339818101604052606081101561003357600080fd5b8101908080519060200190929190805190602001909291908051906020019092919050505033600260006101000a81548173ffffffffffffffffffffffffffffffffffffffff021916908373ffffffffffffffffffffffffffffffffffffffff160217905550826000806101000a81548173ffffffffffffffffffffffffffffffffffffffff021916908373ffffffffffffffffffffffffffffffffffffffff16021790555081600160006101000a81548173ffffffffffffffffffffffffffffffffffffffff021916908373ffffffffffffffffffffffffffffffffffffffff160217905550806003819055505050506104f0806101336000396000f3fe6080604052600436106100705760003560e01c806386d1a69f1161004e57806386d1a69f14610122578063aa8c217c14610139578063ae90b21314610164578063d0e30db0146101a557610070565b8063123119cd146100755780633bfb6e31146100b6578063722713f7146100f7575b600080fd5b34801561008157600080fd5b5061008a6101af565b604051808273ffffffffffffffffffffffffffffffffffffffff16815260200191505060405180910390f35b3480156100c257600080fd5b506100cb6101d3565b604051808273ffffffffffffffffffffffffffffffffffffffff16815260200191505060405180910390f35b34801561010357600080fd5b5061010c6101f9565b6040518082815260200191505060405180910390f35b34801561012e57600080fd5b50610137610201565b005b34801561014557600080fd5b5061014e61036e565b6040518082815260200191505060405180910390f35b34801561017057600080fd5b50610179610374565b604051808273ffffffffffffffffffffffffffffffffffffffff16815260200191505060405180910390f35b6101ad61039a565b005b60008054906101000a900473ffffffffffffffffffffffffffffffffffffffff1681565b600260009054906101000a900473ffffffffffffffffffffffffffffffffffffffff1681565b600047905090565b600354471461025b576040517f08c379a000000000000000000000000000000000000000000000000000000000815260040180806020018281038252602781526020018061046d6027913960400191505060405180910390fd5b600260009054906101000a900473ffffffffffffffffffffffffffffffffffffffff1673ffffffffffffffffffffffffffffffffffffffff163373ffffffffffffffffffffffffffffffffffffffff1614610301576040517f08c379a00000000000000000000000000000000000000000000000000000000081526004018080602001828103825260278152602001806104946027913960400191505060405180910390fd5b600160009054906101000a900473ffffffffffffffffffffffffffffffffffffffff1673ffffffffffffffffffffffffffffffffffffffff166108fc6003549081150290604051600060405180830381858888f1935050505015801561036b573d6000803e3d6000fd5b50565b60035481565b600160009054906101000a900473ffffffffffffffffffffffffffffffffffffffff1681565b60008054906101000a900473ffffffffffffffffffffffffffffffffffffffff1673ffffffffffffffffffffffffffffffffffffffff163373ffffffffffffffffffffffffffffffffffffffff161461045b576040517f08c379a00000000000000000000000000000000000000000000000000000000081526004018080602001828103825260118152602001807f4d7573742062652074686520706179657200000000000000000000000000000081525060200191505060405180910390fd5b60035447111561046a57600080fd5b56fe4d757374206861766520726967687420616d6f756e74206265666f726520697427732073656e744f6e6c79206c617779657220697320616c6c6f77656420746f2072656c656173652066756e6473a2646970667358221220811a289d286c38733180cd0e1b8b3f86678eff72a0bd45436bd677ea5ded2ee064736f6c63430007050033",
  "immutableReferences": {},
  "source": "pragma solidity ^0.7.5;\n\ncontract Escrow {\n\taddress public payer;\n\taddress payable public payee;\n\taddress public lawyer;\n\tuint public amount;\n\n\tconstructor(address _payer, address payable _payee, uint _amount) {\n\t\tlawyer = msg.sender;\n\t\tpayer = _payer;\n\t\tpayee = _payee;\n\t\tamount = _amount;\n\t} \n\n\tfunction deposit() payable public {\n\t\trequire(msg.sender == payer, \"Must be the payer\");\n\t\t//This second require checks if the balance of this address exceeds the amount state above\n\t\t//This way it won't be possible to use deposit twice and send more money than is required\n\t\trequire(address(this).balance <= amount);\n\t}\n\n\tfunction release() public {\n\t\trequire(address(this).balance == amount, \"Must have right amount before it's sent\");\n\t\trequire(msg.sender == lawyer, \"Only lawyer is allowed to release funds\");\n\t\tpayee.transfer(amount);\n\t}\n\n\tfunction balanceOf() view public returns (uint) {\n\t\treturn address(this).balance;\n\t}\n}",
  "sourcePath": "/Users/edsonramirez/ChainSkills/private/escrow-dp10/contracts/Escrow.sol",
  "compiler": {
    "name": "solc",
    "version": "0.7.5+commit.eb77ed08.Emscripten.clang"
  },
  "schemaVersion": "3.3.2",
  "updatedAt": "2021-02-05T06:41:13.880Z",
  "devdoc": {
    "kind": "dev",
    "methods": {},
    "version": 1
  },
  "userdoc": {
    "kind": "user",
    "methods": {},
    "version": 1
  }
}